:020000040800F2
:10000000C80A0020C1010008010F0008510D0008B6
:10001000FD0E00089F090008BD1A0008000000003E
:100020000000000000000000000000006315000850
:10003000810A0008000000000313000851160008A0
:10004000DB010008DB010008DB010008DB01000820
:10005000DB010008DB010008DB010008DB01000810
:10006000DB010008DB010008DB010008DB01000800
:10007000DB010008DB010008DB010008DB010008F0
:10008000DB010008DB010008DB010008DB010008E0
:10009000DB010008DB010008DB010008DB010008D0
:1000A000DB010008DB010008DB010008DB010008C0
:1000B000DB010008DB010008DB010008DB010008B0
:1000C000DB010008DB010008DB010008DB010008A0
:1000D000DB010008C5180008DB010008DB0100088F
:1000E000DB010008DB010008DB010008DB01000880
:1000F000DB010008DB010008DB010008DB01000870
:10010000DB01000861150008DB010008DB010008C5
:10011000DB010008DB010008DB010008DB0100084F
:10012000DB010008DB010008DB010008DB0100083F
:10013000DB010008DB010008DB010008DB0100082F
:10014000DB010008DB010008DB010008DB0100081F
:10015000DB010008DB010008DB010008DB0100080F
:10016000DB010008DB010008DB010008DB010008FF
:10017000DB010008DB010008DB01000800000000D3
:10018000DB010008DB010008DB010008DB010008DF
:10019000DB010008DB010008DB01000800000000B3
:1001A000DB010008DB010008DB010008DFF80CD0F0
:1001B00000F03CFA0048004791320008C80A0020CD
:1001C0000648804706480047FEE7FEE7FEE7FEE7F1
:1001D000FEE7FEE7FEE7FEE7FEE7FEE79D16000806
:1001E000AD010008D2B201E000F8012B491EFBD29C
:1001F00070470022F6E710B513460A460446194632
:10020000FFF7F0FF204610BD00F0004230F0004044
:100210000AD0C10D01F56071C0F3160042EA015128
:10022000C20840071143704700200146704730B5AF
:100230000B46014600202022012409E021FA02F5A4
:100240009D4205D303FA02F5491B04FA02F528443E
:10025000151EA2F10102F1DC30BD2DE9F05F05466B
:10026000002092469B4688460646814640241BE075
:10027000284641464746224600F0F9F953465A4679
:10028000C01A914110D311461846224600F0E0F9F9
:100290002D1A67EB01084F4622460120002100F08D
:1002A000D7F917EB00094E41201EA4F10104DFDC51
:1002B000484631462A464346BDE8F09F2DE9FE4FA9
:1002C000804681EA0300C00F0C46009021F00041F7
:1002D00023F00045B8EB0200A94105D24046214673
:1002E00090461C460B46024623F00040104347D080
:1002F000270DC7F30A00C3F30A510290401A019078
:1003000040286BDAC3F3130040F4801B0098924638
:1003100020B10023D2EB030A63EB0B0B0198594683
:10032000C0F14002504600F093F906460D46504693
:100330005946019A00F0ABF910EB08006141002426
:1003400087EA115284EAE7731A4340D0009A62B3F5
:10035000019A012A4FEA075215DC001B61EB0201EA
:100360004FF0004202EA0752CDE90042001C41F57D
:10037000801132462B4600F0ABF903B0BDE8F08F98
:1003800040462146F9E7001B61EB0201001C41F5E4
:10039000801300185B412018A2F5001747EB0301FA
:1003A00040EAD570B6196D4111E06D084FEA360686
:1003B00045EAC0754FEA0752001B61EB0201001CC1
:1003C00041F5801149084FEA300000195141324689
:1003D0002B4603B0BDE8F04F00F06BB90098012246
:1003E00040000023D0EB020263EBE073009821464B
:1003F0004FEAE074B8EB000061EB0401E9E783F039
:1004000000435BE781F0004158E72DE9FE4F81EAA8
:10041000030404F0004421F0004100944FF0000B6D
:1004200023F0004350EA01045ED052EA03045BD09B
:10043000C3F30A54C1F30A552C44A4F2F3340194D3
:10044000A0FB0254C1F3130141F48011C3F3130361
:1004500043F4801301FB024400FB034E840A970A15
:1004600044EA815447EA8357A4FB076802958D0A42
:1004700005FB07854FEA932C04FB0C542705029DCE
:100480004FEA065847EA1637B5EB08056EEB070C3E
:10049000870E920E47EA811742EA8312A7FB0201F8
:1004A000B6EB0B0164EB00042B0D43EA0C335E1832
:1004B00044EB1C50DA465146E7FB0201C5F3130436
:1004C0004FEA0B3343EA14534FEA0432019C43EAE8
:1004D0000603A4F10C040294009CCDE900B400F0E2
:1004E000F7F803B0BDE8F08F00200146F9E72DE9E9
:1004F000F04D81EA030404F0004B21F0004514465E
:100500004FF0000A23F0004150EA050220D054EADF
:1005100001021DD0C5F30A570246C5F31303C1F308
:100520001300C1F30A5640F4801543F48013A7EB7F
:100530000608101BD64608F2FD3873EB050002D3FF
:1005400008F1010801E092185B41B8F1000F03DAED
:1005500000200146BDE8F08D00204FF480110646D2
:1005600084460EE0171B73EB050705D3121B63EBE4
:10057000050306434CEA010C49084FEA3000921883
:100580005B4150EA0107EDD152EA030012D082EA42
:10059000040083EA0501084305D0101BAB4106D2D5
:1005A0000122002306E000224FF0004302E06FF03A
:1005B000010253101AEB06004CEB085110EB0A0035
:1005C00041EB0B01BDE8F04D00F073B8C1F30A52E6
:1005D000C1F3130140F2FF3341F480119A4202DA71
:1005E00000200146704740F233439A42A2F2334260
:1005F00002DC524200F03BB800F02AB830B5041ECD
:1006000071F1000404DB4FF00044404264EB01014F
:10061000141E73F1000405DB1C464FF000435242E8
:1006200063EB0403994208BF904230BD064C074D6E
:1006300006E0E06840F0010394E8070098471034B2
:10064000AC42F6D3FFF7B6FD6C6000088C60000882
:10065000202A04DB203A00FA02F100207047914082
:10066000C2F1200320FA03F3194390407047202A77
:1006700004DB203A21FA02F00021704721FA02F34C
:10068000D040C2F120029140084319467047202A09
:1006900006DBCB17203A41FA02F043EAE07306E0AA
:1006A00041FA02F3D040C2F12002914008431946BA
:1006B000704710B5141E73F1000408DA401C41F1B4
:1006C000000192185B411A4301D120F0010010BDD6
:1006D0002DE9F04D92469B4611B1B1FA81F202E04C
:1006E000B0FA80F220329046FFF7B2FF04460F4680
:1006F00040EA0A0041EA0B0153465A46084313D028
:10070000114653EA010019D0C8F140025046FFF7E4
:10071000AEFF05460E46504659464246FFF798FF43
:10072000084305D0012004E020463946BDE8F08D9D
:100730000020054346EAE0762C4337430A986305D8
:10074000E40AA0EB08000022FD0A44EA47540A30FC
:1007500002D500200146E9E7010510196941DDE9EC
:10076000084500196941BDE8F04DA2E710B52DED2F
:10077000028B00F06DF808EE100AB8EE480A9FED03
:10078000061AC0EE010AB0EE001AB7EE000A00EE3B
:10079000810ABDEC028B10BD00F07F4510B52DED38
:1007A000028B00F06FF808EE100AF8EE480A9FED91
:1007B000051A80EE810ADFED040A20EE200ABDEC66
:1007C000028B10BD00F07F453333534010B540F627
:1007D000024003F071F841F2081003F06DF80123B4
:1007E00000220321184802F0FBFC08230022032109
:1007F000154802F0F5FC4FF4403001F027FE01F0FF
:1008000042FE00220221114801F0DDFE00210F48C6
:1008100001F02EFE012211460C4801F0EDFD0323EC
:100820000A220021094801F062FE00220121074846
:1008300001F03CFE054801F030FE012001F07AFF96
:10084000024801F0C4FD10BD000802400020014034
:1008500010B503230A220021094801F048FE0121B6
:10086000074801F09EFE00BF0221054801F038FE56
:100870000028F9D0024801F090FE0446204610BD41
:100880000020014010B503230D220021094801F08A
:100890002EFE0121074801F084FE00BF0221054819
:1008A00001F01EFE0028F9D0024801F076FE044651
:1008B000204610BD00200140B5EEC00AF1EE10FA4E
:1008C00009DDDFED050AB4EEE00AF1EE10FA02D21E
:1008D000024880ED000A70470000C8422400002052
:1008E000B5EEC00AF1EE10FA09DDDFED050AB4EE4F
:1008F000E00AF1EE10FA02D2024880ED000A7047D9
:100900000000C8422800002010B540F6024002F066
:10091000D3FF41F2081002F0CFFF01230022032190
:10092000044802F05DFC4FF4403001F08FFDFFF70A
:100930004DFF10BD0008024002460020302A04DBB3
:10094000392A02DC1307180E0EE0412A05DB462A7D
:1009500003DCD31F1B07180E06E0612A04DB662A9E
:1009600002DCD31F1B07180E302906DB392904DCF3
:10097000A1F130030343D8B210E0412906DB462938
:1009800004DCA1F137030343D8B207E0612905DB9A
:10099000662903DCA1F157030343D8B2704700BFB7
:1009A000FEE708B56946C2780A7082784A704278D4
:1009B0008A700278CA709DED000A08BD30B5024603
:1009C0000B464FF6FF70002112E0545C604000249B
:1009D0000AE000F0010525B14AF2010585EA600050
:1009E00000E04010651CACB2082CF2DB4C1CA1B23C
:1009F0009942EADB30BD000010B54FF4406002F0D0
:100A00005BFF41F21D0002F057FF1023002203217B
:100A10000F4802F0E5FB0F4801F022FE00210D48CF
:100A200001F04CFE002211460A4801F054FE00215C
:100A3000084801F036FE0021064801F025FE40F688
:100A4000010000F009F80A2001F074FE10BD00005A
:100A5000000002400074004010B50446B4F5805F09
:100A600001DB40F6FF74234600221146034801F0E3
:100A7000D7FD052001F05EFE10BD000000740040AF
:100A8000704701B52DED020B6946CA7802708A786D
:100A900042704A7882700A78C2700EBD70B565489F
:100AA0000078E0B9002017E06349095C412912D1C0
:100AB000614A411C515C35290DD1811C515C422990
:100AC00009D1C11C515C362905D15C4A1080012135
:100AD000584A117002E0401CFF28E5DDA6E05548A9
:100AE000007801281DD15549088817E05249095C52
:100AF000422912D1504A411C515C36290DD1811C2A
:100B0000515C412909D1C11C515C352905D14C4AA0
:100B100010800221474A117002E0401CFF28E5DDE9
:100B200084E0444800780228D8D100254349088849
:100B300006E041490B5C29466D1C424A5354401C57
:100B40003F490988091D8842F3DB00203D4948558B
:100B5000284605EBD0714E1000240CE06200521CB8
:100B6000384B995C13F81400FFF7E6FE3649085538
:100B700033490C80641CB442F0DB3348407832497E
:100B8000097840EA0120314908802F48C0782E4971
:100B9000897840EA01202D4948802B4800798880D7
:100BA000294880792849497940EA01202749C880A5
:100BB0002548C07908812448007A4881002007E050
:100BC00000F10901204A525C20490C310A54401CB2
:100BD0001E4909898142F3DC19480088801E1A49A0
:100BE000095C17480088C01E174A105C41EA0020C3
:100BF00016498885104612490988415C10480088CA
:100C0000401E105C41EA00201049C8854FF48071F5
:100C10000948FFF7EEFA00200D49088007490880CF
:100C20000749088003200349087000BF0148007885
:100C300070BD000062000020CC0200205E00002099
:100C4000600000209805002018060020980600206B
:100C50001C00002070B5002438480088021220468D
:100C6000641C37490A54354802782046641C0A54EB
:100C70003248408802122046641C0A542F48827869
:100C80002046641C0A542D4802792046641C0A54EC
:100C90002A48C08802122046641C0A5427488279D8
:100CA0002046641C0A542548027A2046641C0A54D3
:100CB0002248827A2146641C21484254002007E0E1
:100CC0001E490C310B5C2146641C1D4A5354401CC8
:100CD0001A4909898142F3DCA1B21948FFF76EFE77
:100CE000164988850846808D02122046641C1449E6
:100CF0000A54124890F82C202046641C0A544BF2E7
:100D0000A5600E49C8850846C08D02122046641CA5
:100D10000B490A54094890F82E202046641C0A54B6
:100D2000002505E00648415D06A000F0C9FE6D1CE7
:100D3000A542F7DB05A000F0C3FE70BD68040020EB
:100D40009804002025303258000000000D0A0000F1
:100D500000BFFEE710B54FF40073012211461248A0
:100D600002F03EFA4FF40073022201210E4802F015
:100D70005EFA4FF400710C4802F027FA4FF48071CC
:100D8000094802F022FA00F071F84FF400710648A9
:100D900002F019FA00F06AF84FF48071024802F08C
:100DA00012FA00F063F810BD0004024010B54FF4D1
:100DB0000073012211460E4802F012FA4FF400733C
:100DC000022201210A4802F032FA4FF40071084869
:100DD00002F0F9F94FF48071054802F0F6F900F0DD
:100DE00045F84FF40071024802F0EFF910BD000021
:100DF0000004024010B54FF400711B4802F0E5F901
:100E000000F034F84FF48071174802F0DEF900F07A
:100E10002DF84FF4007301220021134802F0E0F98D
:100E200005E0601CC4B2FE2C01DDFFF7BFFF4FF4EC
:100E300000710D4802F0CBF90028F2D14FF4807117
:100E4000094802F0C0F900F011F84FF400730122D4
:100E50001146054802F0C4F94FF400730222012143
:100E6000014802F0E4F910BD00040240782000BF00
:100E7000011EA0F1010290B2FAD1704710B54FF4F3
:100E8000406002F019FD8023002201210E4802F08B
:100E9000A7F98023022200210B4802F0C8F9802123
:100EA000094802F090F9202300220121064802F0AF
:100EB00097F9202302220021034802F0B8F92021EB
:100EC000014802F080F910BD0000024010B5094849
:100ED000006838B98021084802F075F901200549F9
:100EE000086006E08021044802F06FF90020014903
:100EF000086010BD040000200000024000BFFEE7B3
:100F00007047000010B5002807DA0A07140E054ADA
:100F100000F00F031B1FD45403E00A07130E024A0C
:100F2000135410BD18ED00E000E400E070B500249B
:100F30000CE0002506E00020074901EB850108557B
:100F4000681CC5B2802DF6DB601CC4B2042CF0DB3B
:100F500000F0F6F870BD00006800002070B50B4688
:100F6000CE1701EB5676C6F3C702CE1701EB5676C5
:100F7000F610A1EBC606F4B20123A340DDB20E4B7E
:100F800003EB80039B5CDB430B4E06EB8006B35404
:100F9000094B03EB80039B5C2B43074E06EB80065B
:100FA000B354054B03EB80039B5CDB43024E06EB23
:100FB0008006B35470BD00006800002070B50A467A
:100FC000CE1701EB5676C6F3C703CE1701EB567664
:100FD000F610A1EBC606F4B20122A240D5B2054A32
:100FE00002EB8002D25C2A43024E06EB8006F254EA
:100FF00070BD00006800002010B540F6014002F00E
:101000005BFC4FF48073012211464C4802F0E8F873
:101010004FF4807302220121484802F008F94FF48E
:101020008071464802F0D1F84FF400730122114656
:10103000424802F0D5F84FF40073022201213F48E4
:1010400002F0F5F84FF400713C4802F0BEF84FF49E
:10105000FA7001F06FFB0021AE2000F036F900219C
:10106000084600F032F90021102000F02EF900218E
:10107000402000F02AF90021812000F026F900210B
:10108000CF2000F022F90021A12000F01EF900215C
:10109000C82000F01AF90021A62000F016F900215E
:1010A000A82000F012F900211F2000F00EF9002105
:1010B000D32000F00AF90021084600F006F90021CB
:1010C000D52000F002F90021802000F0FEF8002178
:1010D000D92000F0FAF80021F12000F0F6F8002104
:1010E000DA2000F0F2F80021084600F0EEF80021C6
:1010F000DB2000F0EAF80021402000F0E6F80021B3
:10110000202000F0E2F80021022000F0DEF80021AB
:101110008D2000F0DAF80021142000F0D6F800212C
:10112000A42000F0D2F80021A62000F0CEF8002183
:10113000AF2000F0CAF8FFF7F9FE10BD000402402E
:1011400070B500241CE004F1B001C8B2002100F029
:10115000BCF80021084600F0B8F80021102000F08B
:10116000B4F8002508E0084901EB8501085D01217C
:1011700000F0ABF8681CC5B2802DF4DB601CC4B273
:10118000042CE0DB70BD0000680000202DE9FF4F5B
:1011900081B080460E461C4600962046E31704EBBD
:1011A0005373DB1021464FEAE47C04EB5C7C4FEA8E
:1011B000EC0CA4EBCC0CBCF1000F02D04FF0010CF6
:1011C00001E04FF0000C6344224604EBD27C4FEA6E
:1011D0006C0C03FB0CF303F0FF0B03982038C7B231
:1011E000002547E00C2C07D107EB4700234901EB12
:1011F000800010F805A014E0102C05D1204800EB69
:10120000071010F805A00CE0182C07D107EBC70059
:101210001C4901EB800010F805A002E005B0BDE814
:10122000F08F4FF000091FE00AF0800020B1314636
:101230004046FFF7C3FE03E031464046FFF78EFE0F
:101240004FEA4A604FEA106A701CC6B20098301A22
:10125000A04205D1009E08F1010000F0FF0806E061
:1012600009F1010000F0FF09B9F1080FDCDB00BF54
:10127000681CC5B25D45B5DB00BFCFE794480008E8
:10128000084D0008F8520008F0B506460F4614460F
:101290001D4613E022782B4639463046FFF776FF8D
:1012A000284605EBD07106EB6101CEB2C5F1800096
:1012B000B04202DA0026B81CC7B2641C207820288D
:1012C00002DB20787E28E5DDF0BD70B505460C46D2
:1012D000FFF740FD782000F08DF9FFF78BFD1CB182
:1012E000402000F087F902E0002000F083F9FFF7CA
:1012F00081FD284600F07EF9FFF77CFDFFF756FDE3
:1013000070BD704710B541F21C0002F0D5FA02F032
:1013100059F902F0D5FB11480068C0F301201049CB
:1013200008601048006843F2F021884202D10C485E
:10133000006810B902F014FC0CE041F61B5002F0FA
:10134000E7F918B108A000F0BBFB03E041F61A5022
:1013500002F0DEF902F040F910BD000070380240E2
:101360001000002050280040706F776572206F6E6B
:10137000207265736574206F636375727265642E85
:101380002E2E2E0A0D0000002DE9F04300225948B0
:101390000078001100EB80004FF4FA6303EB40008B
:1013A000544B1B7803F00F03C1185248407800F0EB
:1013B0000F00504B5B781B1103EB830300EB4300E2
:1013C000C4B24C48807800F00F004A4B9B781B1148
:1013D00003EB830300EB4300C5B24648007900F0FD
:1013E0000F00444B1B791B1103EB830300EB4300FD
:1013F000C6B24048407900F00F003E4B5B791B11AC
:1014000003EB830300EB4300C7B23A48807900F056
:101410000F00384B9B791B1103EB830300EB430058
:1014200000F0FF0C40F2B27023E04FEAE07800EBEE
:1014300098784FEAA808A0EB8808B8F1000F08D107
:101440004FF0640890FBF8F908FB1908B8F1000F99
:1014500008D14FF4C87890FBF8F908FB1908B8F1E7
:10146000000F02D102F5B77201E002F26D12431CC7
:1014700098B28842D9DB012027E0431EDFF878804C
:1014800018F803301A4402281DD14FEAE17801EB25
:1014900098784FEAA808A1EB8808B8F1000F08D1A6
:1014A0004FF0640891FBF8F908FB1918B8F1000F28
:1014B00008D14FF4C87891FBF8F908FB1918B8F176
:1014C000000F00D1521C431CD8B2A042D5DB681ECD
:1014D00002440A485043C6EB4613C3EB062300EB15
:1014E0000310C7EB071300EB83006044A0F5E14055
:1014F000BDE8F083A802002054600008805101007C
:10150000154800881549088013488078887012486B
:10151000C078C8701048007908710F484079487148
:101520000D48806888600C4890ED030A084680EDFD
:10153000030A094890ED040A084680ED040A0648AB
:1015400090ED050A084680ED050A034890ED060A6D
:10155000084680ED060A7047000001084C04002090
:101560007047704710B501F0B1FD204801F03AFD19
:101570001F4801881D4801F001FD1D4881781B4866
:10158000801C01F0D3FC1A48C1781848C01C01F037
:10159000CDFC174801791548001D01F0C7FC14481F
:1015A00041791248401D01F0C1FC114881680F4883
:1015B000083001F09DFD0E48C1680C480C3001F068
:1015C00097FD0B4801690948103001F091FD08486A
:1015D00041690648143001F08BFD054881690348D4
:1015E000183001F085FD01F0F3FC10BD000001088A
:1015F0004C04002070B50446002524E04FF48071AF
:10160000124801F0E0FD04F0800028B14FF40071B1
:101610000E4801F0DAFD04E04FF400710B4801F0D0
:10162000D2FDFFF723FC4FF48071084801F0CDFD97
:10163000FFF71CFC4FF48071044801F0C4FD600604
:10164000040E681CC5B2082DD8DB70BD0004024032
:1016500010B50F480068401C0D49086001F074F88F
:101660000B4800680B49096890FBF1F201FB12007E
:1016700010B9012008490860054800684FF47A71E4
:1016800090FBF1F201FB120008B9FFF71FFC10BD3F
:101690003400002050000020540000201CB55D489C
:1016A000006840F470005B4908605B48006840F0E7
:1016B00001005949086000BF5748006800F0020067
:1016C0000028F9D054480830006800F00C000828C1
:1016D0006ED100BF0020019002E00198401C0190F3
:1016E00001985028F9D34C480830006800900098C1
:1016F00020F0F0000090009840F0800000904649F3
:101700000831009808600020019002E00198401C18
:10171000019001985028F9D33F48083000680090A4
:10172000009820F0F0000090009840F090000090A9
:1017300039490831009808600020019002E00198C2
:10174000401C019001985028F9D3334808300068B4
:101750000090009820F0F0000090009840F0A00069
:1017600000902D490831009808600020019002E0A7
:101770000198401C019001985028F9D32648083060
:1017800000680090009820F0F0000090009840F071
:10179000B0000090204908310098086000200190B6
:1017A00002E00198401C019001985028F9D300BF35
:1017B00019480830006820F0030017490831086014
:1017C000C82000F0F6FD144800681449084012498A
:1017D00008600846006820F48020086000200E4958
:1017E0000831086000BF0C4808300068002000285D
:1017F000F9D10B480849091D0860002006490C3141
:10180000086002F0C7FA00214FF0006001F0CEFE40
:101810001CBD000088ED00E000380240FFFFF6FE2E
:101820001030002410B54FF4406002F045F841F24A
:10183000041002F041F84FF4C06207211E4801F085
:1018400093FC4FF40073012202211B4801F0C8FCF5
:101850004FF4007302220021174801F0E8FC4FF416
:10186000806300220221144801F0BAFC4FF4806327
:1018700002220021104801F0DAFC104802F034FB8B
:101880000F4801680D4802F0B1FA04210B4802F03C
:10189000E5FB0821094802F0E9FB0022114625205A
:1018A00001F0F6FD40F20531044802F0A0FB0348C8
:1018B00002F088FB10BD0000000002400010014053
:1018C0001800002010B50D490D4802F0AAFB98B190
:1018D0000B4802F0FFFAC4B20A480088FF2806DC71
:1018E00008490888411C074A118007490C540349DC
:1018F000034802F089FB00BF10BD0000050305008E
:10190000001001401C000020CC0200202DE9F04F07
:10191000034640F2B270012203F5E143644DB3FB8C
:10192000F5F1B3FBF5F705FB17344FF46165B4FB34
:10193000F5F505F0FF0C4FF46165B4FBF5F705FB19
:1019400017443C25B4FBF5F505F0FF083C25B4FB36
:10195000F5F705FB174929E04FEAE07A00EB9A7AA0
:101960004FEAAA0AA0EB8A0ABAF1000F08D14FF099
:10197000640A90FBFAFB0AFB1B0ABAF1000F08D1BC
:101980004FF4C87A90FBFAFB0AFB1B0ABAF1000F6E
:1019900002D14FF4B77501E040F26D15A94203D3AF
:1019A000491B471CB8B200E001E000BFD4E700BF0C
:1019B0002DE0571EDFF8FCA01AF80750022A1ED1AE
:1019C0004FEAE07A00EB9A7A4FEAAA0AA0EB8A0A79
:1019D000BAF1000F08D14FF0640A90FBFAFB0AFB42
:1019E0001B0ABAF1000F08D14FF4C87A90FBFAFB3A
:1019F0000AFB1B0ABAF1000F01D16F1CFDB2A9420C
:101A000003D3491B571CFAB200E001E000BFD0E746
:101A100000BF4D1CEEB2A0F5FA650A2795FBF7FA58
:101A200007FB1A574FF00A0A95FBFAF547EA051526
:101A3000214F3D700A2592FBF5F705FB17250A2774
:101A400092FBF7F745EA07151B4F7D700A2596FBB9
:101A5000F5F705FB17650A2796FBF7F745EA071523
:101A6000154FBD700A259CFBF5F705FB17C50A2726
:101A70009CFBF7F745EA07150F4F3D710A2598FBC8
:101A8000F5F705FB17850A2798FBF7F745EA0715D1
:101A9000094F7D710A2599FBF5F705FB17950A2774
:101AA00099FBF7F745EA0715034FBD71BDE8F08FC5
:101AB0008051010060600008A802002000BFFEE71E
:101AC0000FB4054B10B503A9044A029800F0DAF8E8
:101AD00010BC5DF814FB00004531000864000020D4
:101AE00002E008C8121F08C1002AFAD170477047E7
:101AF000002001E001C1121F002AFBD17047000045
:101B00002DE9FF5F82B00021DDE90430020DDDF830
:101B100040B0034318D044F61050A2F2FF324243C3
:101B20001514119801281FD0A5EB0B00401C5FEA8B
:101B3000000A4FF000064E4FDFF83891B04650468D
:101B400015D5CAF1000413E0119801244AA3012815
:101B500001D16FEA0B010298119AC0E90031C0E986
:101B6000024206B0BDE8F09FCBF10000DFE704467B
:101B70000021404A491842EB0450CDE9001012E020
:101B8000E00707D032463B4640464946FEF73DFC5B
:101B90008046894632463B4610461946FEF735FCDC
:101BA00006460F466410002CEAD1DDE90401DDE9A8
:101BB0000023BAF1000F06DAFEF727FC42464B4637
:101BC000FEF723FC05E0FEF792FC42464B46FEF78B
:101BD0008EFC04460E460022284BFEF70FFD03D86C
:101BE0004FF0FF30014607E00022254B20463146EA
:101BF000FEF764FBFEF7EAFC102409E0002C0ADB88
:101C00000A220023FEF729FB039B30321A55641E7B
:101C100050EA0102F2D1641C039AC4F11103144486
:101C2000119A012A03D0012208430DD10AE008438A
:101C300004D000204FF0110B119072E7A3EB0B05BD
:101C40006D1E0DE05B4504DD4FF0000205F101055E
:101C500004E003DA4FF00002A5F10105002AECD000
:101C600002981199C0E90231C0E9004579E7000006
:101C7000000014400000F03F300000000000F0437E
:101C80000000E03F2DE9FF4F95B09B468946064690
:101C900000250FE2252877D100242746F84A0121A4
:101CA000059400E0044316F8013F203B01FA03F0DD
:101CB0001042F7D130782A2811D06FF02F033078F6
:101CC000A0F13002092A16D8059A44F0020402EB6A
:101CD000820203EB42021044761C0590EFE759F8AC
:101CE000042B0592002A03DA504244F40054059074
:101CF00044F00204761C30782E2816D116F8010F15
:101D000044F004042A280DD06FF02F023078A0F19F
:101D10003003092B09D807EB870302EB4303C718ED
:101D2000761CF3E759F8047B761C30786C280FD0CA
:101D300006DC4C2817D068280DD06A2814D104E09E
:101D4000742810D07A280FD10DE044F400140AE072
:101D500044F4801401E044F440147278824202D1C9
:101D600004F58014761C761C307866280BD013DCC2
:101D7000582877D009DC002875D04528F6D04628A9
:101D8000F4D047281AD19DE118E0632835D06428A3
:101D900079D0652812D195E1702873D008DC6728C6
:101DA000F1D069286FD06E280DD06F2806D1B5E02C
:101DB00073282CD0752875D0782874D05A46179976
:101DC00090476D1C75E1C4F30250022809D0032826
:101DD0000DD0D9F8001004280DD00D6009F10409C8
:101DE00067E1D9F80010EA17C1E90052F6E7D9F81F
:101DF00000100D80F2E70D70F0E719F8041B8DF864
:101E0000001000208DF80100EA46012003E059F897
:101E100004AB4FF0FF3061074FF0000102D40DE03A
:101E200008F101018846B9420FDA8045F8DB1AF85B
:101E300008100029F4D108E008F101018846814228
:101E4000FADB1AF808100029F6D105985B46A0EBDA
:101E5000080721463846179A00F094FA284400EB08
:101E6000080507E04DE029E10DE01AF8010B5A469C
:101E700017999047B8F10108F7D25B4621463846DA
:101E8000179A13E142E00A220092C4F302524FF083
:101E9000000A022A08D059F804CB032A4FEAEC7151
:101EA0000AD00DE029E02AE009F1070121F007023C
:101EB000F2E802C1914609E00FFA8CFC4FEAEC719E
:101EC000042A03D14FFA8CFC4FEAEC71002907DA9F
:101ED0000A460021DCF1000C61EB02012D2202E038
:101EE000220504D52B228DF80420012203E0E2070D
:101EF00001D02022F7E7904659E00A2102E01022A3
:101F00000DE010214FF0000A00910BE010224FF07D
:101F1000000A44F004040827009203E008224FF06E
:101F2000000A0092C4F30252022A05D059F804CBE9
:101F30000021032A08D009E009F1070121F0070276
:101F4000F2E802C1914605E01FFA8CFC042A01D197
:101F50000CF0FF0C4FF00008220728D5702806D09F
:101F6000009B83F0100353EA0A0305D00EE04022E1
:101F70008DF80420012208E05CEA010206D030223C
:101F80008DF804208DF8050002229046009B83F016
:101F9000080353EA0A030AD15CEA010201D162078D
:101FA00005D530228DF804204FF001087F1E5828F7
:101FB00004D034A003900EA802900DE036A0F9E7FB
:101FC00053466046009AFEF748F984460398825CBF
:101FD0000298401E029002705CEA0100F0D1029863
:101FE00006A9081A00F1200A600702D524F48034FB
:101FF00000E00127574502DDA7EB0A0000E00020C2
:1020000000EB0A01009005984144401A0590E00356
:1020100006D45B462146179A059800F0B3F90544AB
:10202000002706E001A85A46C05D179990476D1C2D
:102030007F1C4745F6DBE0030CD55B462146179A2B
:10204000059800F09FF9054404E030205A4617999E
:1020500090476D1C0099481E00900029F5DC08E0AF
:10206000029802995A460078491C029117999047A4
:102070006D1CBAF10001AAF1010AF1DC65E1000072
:10208000092801003031323334353637383961624E
:102090006364656600000000303132333435363712
:1020A00038394142434445460000000000F058F9E9
:1020B0000544761C307800287FF4ECAD19B0284632
:1020C000BDE8F08F620700D4062709F1070222F06D
:1020D000070CFCE80223E14603F000485FEA080C25
:1020E00002D00FF2702C0DE05FEA045C02D50FF213
:1020F000682C07E05FEAC47C02D00FF2602C01E09C
:10210000AFF2700C4FF0FF3823F00043CDF850C011
:1021100065280CD006DC452809D046281DD0472864
:102120003DD13DE0662818D067287ED138E00021F7
:10213000112F01DB112000E0781CCDE9000106A978
:102140000EA8FFF7DDFCDDE90F010E9A03910021D7
:10215000009207F1010A04914DE04FF00040009712
:10216000CDE9011006A90EA8FFF7CAFCDDE90F02B0
:1021700003920E9B11990022DDF80CA000930492AB
:1021800011B9791C00EB010AB7EB0A0004D4C0F1C5
:10219000FF3007F1010A0490AAEB0700019044E028
:1021A000012F00DA01270021112F01DD112000E0AD
:1021B0003846CDE9000106A90EA8FFF7A1FCDDE92C
:1021C0000F010E9A0391002104910092BA46210753
:1021D0000CD40399514500DA8A46BAF1010F05DDA6
:1021E000009AAAF10101515C302908D0B84202DA04
:1021F00010F1040F06DA0121CDE9011015E0AAF172
:102200000101E9E7002805DC049901440491AAEBE7
:10221000000102E0411C514500DD8A460499401A44
:10222000401C01904FF000400290200704D4019818
:10223000504501DBCDF8048000208DF84F00029856
:102240000DF14F07B0F1004F25D02B200E900298D2
:102250004FF0020800280CDA404202902D200E9028
:1022600007E00A210298FDF7E2FF3031029007F8FB
:10227000011DB8F10001A8F10108F2DC0298002864
:10228000EFD1791E0E980870307800F0200040F0F1
:10229000450007F8020D12A8C01B00F107081498AA
:1022A000007800B1012000EB0A01019801EBE07118
:1022B00005984144401A401E0590E00306D45B4651
:1022C0002146179A059800F05DF8054414980078A7
:1022D00018B15A46179990476D1CE00324D55B4608
:1022E0002146179A059800F04DF805441CE0049823
:1022F000002807DBDDE90301884203DD0098405C2C
:10230000179901E0179930205A469047049805F133
:102310000105401C04900198401E019004D12E201C
:102320005A46179990476D1CBAF10001AAF1010AAB
:10233000DDDC05E017F8010B5A46179990476D1C34
:10234000B8F10001A8F10108F4DC5B462146179AB8
:102350000598ABE62D0000002B00000020000000D7
:102360002DE9F041044600251E461746880404D492
:1023700005E039462020B0476D1C641EF9D528467B
:10238000BDE8F0812DE9F041044600251E46904647
:10239000C80301D5302700E02027880404D505E0D4
:1023A00041463846B0476D1C641EF9D52846BDE845
:1023B000F08108B50021009102E00099491C0091CC
:1023C00000EB8001009AB2EB410FF6D308BD8168A3
:1023D00041F00801816000BF816801F00801002917
:1023E000FAD1816841F00401816000BF816801F089
:1023F00004010029FAD1704730B5012902D0022921
:1024000020D10FE06AB1102A0BD8C36A23F47003FD
:10241000C362C36A541E4FF4700505EA0454234393
:10242000C36210E06AB1042A0BD8836B23F4401313
:102430008363836B541E4FF4401505EA0454234311
:10244000836300E000BF00BF30BD0000064909689B
:1024500021F4E021054AC2F804131146D1F804130F
:102460000143C2F8041370470423014000200140D7
:1024700021B1826842F40062826003E0826822F443
:1024800000628260704710B540F6081001F038FA1B
:1024900040F6081001F022FA10BD816801F0010138
:1024A00019B9816841F0010181607047012902D0AA
:1024B000022912D108E0836823F0405383608368C7
:1024C00043EA0273836009E0836823F44013836066
:1024D000836843EA0253836000E000BF00BF704797
:1024E0000246002013680B4003B101207047F0B58D
:1024F0001D4606290CDA436B01EB81071F26BE40FF
:10250000B34301EB810602FA06F63343436322E04C
:102510000C290EDA036B8E1F06EB86071F26BE40C2
:10252000B3438E1F06EB860602FA06F633430363B7
:1025300011E010290FDAC36AA1F10C0606EB860739
:102540001F26BE40B343A1F10C0606EB860602FA35
:1025500006F63343C3620A2A0CDA046902EB420727
:102560000726BE40B44302EB420605FA06F63443A2
:10257000046111E0122A0FDCC468A2F10A0606EB1E
:1025800046070726BE40B443A2F10A0606EB4606FC
:1025900005FA06F63443C460F0BD0146C86C80B24B
:1025A0007047012902D002290AD104E0826842F072
:1025B0008042826005E0826842F48002826000E02E
:1025C00000BF00BF7047AAB101F480731BB143681C
:1025D00043F48073436001F480631BB1436843F4A8
:1025E0008063436001F00203CBB1836843F00203D0
:1025F000836014E001F480731BB1436823F480739B
:10260000436001F480631BB1436823F4806343603B
:1026100001F002031BB1836823F00203836070475B
:1026200069B922B1012A04D0022A06D103E08360ED
:1026300004E0C36002E0036100E000BF0FE0012995
:102640000DD122B1012A04D0022A06D103E0436150
:1026500004E0836102E0C36100E000BF00BF704797
:1026600010B504460748204440B940F61D0001F06B
:1026700047F940F61D0001F031F900E000BF00BF4E
:1026800010BD0000008CFFBF21B9026842F00102BA
:10269000026005E0012903D1026842F48032026041
:1026A000704721B9026842F00202026005E0012988
:1026B00003D1026842F400320260704721B9026817
:1026C00022F00402026005E0012903D1026822F42D
:1026D00080220260704739B9036823F0C0030360A9
:1026E00003681343036009E0012907D1036823F459
:1026F00040030360036843EA02430360704700003D
:1027000000200B49088048808880C8800881488163
:1027100000BF04E0002206490C310A54401C044961
:1027200009898142F6DC002001498885C885704707
:10273000980600200349086000BF02490968002983
:10274000FBD17047580000200448006820B10348BE
:102750000068401E014908607047000058000020D2
:1027600030B52DED048B81B004460120FE49087080
:10277000FFF7C6FF40F20110844214D14AF2B6506E
:10278000FA490880FA48008848800220888020465C
:10279000C8800120088102204881FF2008730120A1
:1027A000F44908708BE3B4F5827F1FD14AF2B6502A
:1027B000EE490880EE4800884880022088804FF467
:1027C0008270C8800420088102204881E84880780F
:1027D0000873E748C178E5484173E5480179E34863
:1027E0008173E3484179E148C17368E340F2051021
:1027F000844226D14AF2B650DC490880DC48008881
:102800004880022088802046C8800120088102205C
:102810004881FF200873D848007B0106D648407BDA
:1028200041EA0041D448807B41EA0020D249C97B7B
:1028300040EA01052846FFF769F8D04801F0B0F8F2
:102840003DE3B4F5837F1FD14AF2B650C7490880F3
:10285000C74800884880022088804FF48370C88071
:102860000420088102204881C44801F067F8FEF77F
:102870008BFD0546280EBD490873290CBB484173E2
:10288000290A8173C5731AE340F2A11084421BD157
:10289000B948407BB849097B40EA0120B449088027
:1028A0004AF2B650B14908802046C88002204881CB
:1028B000FF200873AE4800884880022088800120ED
:1028C0000881FEF74FFEFAE2B4F5D17F3AD14AF221
:1028D000B650A6490880A648008848800220888013
:1028E0004FF4D170C8800120088102204881FF2068
:1028F0000873A148007B112804D14FF496509C49DD
:10290000886019E09C48007B122804D14FF41650CF
:102910009749886010E09848007B132804D14FF451
:1029200096409349886007E09348007B142803D1C0
:102930004FF4E1308E498860FEF714FE01208D4986
:102940000870BCE240F21110844216D14AF2B6502F
:102950008649088086480088488002208880204672
:10296000C8800220088148818148007800020873ED
:102970007F4801787D484173A1E2B4F5897F32D167
:102980004AF2B65079490880794800884880022088
:1029900088804FF48970C880012008810220488116
:1029A00077480068B0F5E13F02D11420087386E251
:1029B00073480068B0F5964F03D113206B49087334
:1029C0007DE26F480068B0F5165F03D112206749B9
:1029D000087374E26A480068B0F5965FB1D11120BF
:1029E000624908736BE240F2012084421ED1FDF778
:1029F000BDFE6448D0ED000A20EE200AB0EE408A09
:102A00004AF2B65059490880594800884880022047
:102A100088802046C880042008810220488101F176
:102A20000C00B0EE480AFEF72CF848E240F2022013
:102A300084421ED1FDF7B2FE5348D0ED000A20EECD
:102A4000200AB0EE408A4AF2B65048490880484809
:102A500000884880022088802046C88004200881A1
:102A60000220488101F10C00B0EE480AFEF709F897
:102A700025E240F22120844299D040F24120844254
:102A800032D13D48007B8DF800003B48407B8DF8FB
:102A900001003948807B8DF802003748C07B8DF8F3
:102AA00003006846FDF77DFFB0EE408AB0EE480AAD
:102AB000FDF702FF4AF2B6502C4908802C480088E6
:102AC0004880022088802046C8800120088102209A
:102AD0004881FF2008732B4890ED000A244880EDC0
:102AE000030AFEF73FFDEAE140F2422084425CD156
:102AF0002148007B8DF800001F48407B8DF80100C5
:102B00001D48807B8DF802001B48C07B8DF80300B8
:102B10006846FDF746FFB0EE408A18EE100AFDF752
:102B200073FB41EC190B53EC192B18A0FEF7C8FFEF
:102B3000B0EE480AFDF7D4FE4AF2B6500B490880C1
:102B40000B4800884880022088802046C8800120E9
:102B5000088102204881FF2008730B4890ED000A8D
:102B6000034880ED040A1DE05D0000206804002099
:102B70004C0400203800002098060020A802002005
:102B80001800002024000020280000205365742035
:102B900043483120526174696F3A20252E32660D08
:102BA0000A000000FEF7DEFC89E140F26120844269
:102BB0002CD1C548007B012804D14FF47A70C34959
:102BC000086010E0C048007B022804D140F6B8300D
:102BD000BE49086007E0BC48007B032803D141F2EE
:102BE0008830BA4908604AF2B650B9490880B948F5
:102BF000008848800220888040F26120C88001203F
:102C0000088102204881FF20087358E140F201301A
:102C100084421AD1AC48407BAB49097B40EA01258C
:102C20002846FDF719FF4AF2B650A9490880A9487D
:102C300000884880022088802046C88001200881C2
:102C400002204881FF20087339E140F202308442BB
:102C50003FD14AF2B6509E4908809E48008848807D
:102C6000022088802046C8801220088102204881E6
:102C7000994800F063FEFEF787FB0546280E94494D
:102C80000873290C92484173290A8173C573FDF7B3
:102C90006DFD9248D0ED000A20EE200AB0EE408A89
:102CA0008B481030B0EE480AFDF7EBFEFDF776FDDD
:102CB0008B48D0ED000A20EE200AF0EE408A8448CE
:102CC0001430B0EE680AFDF7DCFE0120854908608B
:102CD000F5E040F20330844203D1002081490860CE
:102CE000EDE0B4F5806F1DD14AF2B6507849088006
:102CF000784800884880022088804002C8800820E8
:102D000008810220488101F10C00774991ED000A09
:102D1000FDF7B7FE6E481030744991ED000AFDF7DB
:102D2000B0FECCE040F20140844221D14AF2B650DC
:102D300067490880674800884880022088802046CC
:102D4000C880042008810220488167480068FDF798
:102D50005BFA41EC180B53EC182B65A0FEF7B0FEA4
:102D60005B480C30604991ED000AFDF78AFEA6E051
:102D700040F20240844221D14AF2B65054490880C0
:102D8000544800884880022088802046C88004205B
:102D900008810220488155480068FDF735FA41EC6A
:102DA000180B53EC182B58A0FEF78AFE48480C303D
:102DB0004E4991ED000AFDF764FE80E040F21140BB
:102DC00084422FD14048007B8DF800003E48407B74
:102DD0008DF801003C48807B8DF802003A48C07BAA
:102DE0008DF803006846FDF7DCFD3F4880ED000AE2
:102DF0004AF2B6503649088036480088488002209A
:102E000088802046C8800120088102204881FF2058
:102E10000873354890ED000A2E4880ED050AFEF74C
:102E2000A1FB4CE040F2124084422FD12648007BA7
:102E30008DF800002448407B8DF801002248807BFB
:102E40008DF802002048C07B8DF803006846FDF72E
:102E5000A8FD264880ED000A4AF2B6501C490880B9
:102E60001C4800884880022088802046C8800120B5
:102E7000088102204881FF2008731C4890ED000A59
:102E8000144880ED060AFEF76DFB18E04FF6FF7060
:102E9000844214D122A0FEF713FE4AF2B6500C4928
:102EA00008800C48008848800520888048F6880003
:102EB000C88000200881022048810020087301B0EA
:102EC000BDEC048B30BD00009806002050000020AF
:102ED000680400204C040020A802002024000020E8
:102EE000280000204C0000202C0000203000002092
:102EF0006368305F7468726573686F6C643D253019
:102F00002E32660D0A0000006368315F74687265D6
:102F100073686F6C643D25302E32660D0A00000028
:102F200036363636363636360000000070B5044682
:102F30000D4600266FF0304000F092F80646CEB9FC
:102F40000D48006820F440700B490860084600688E
:102F500008600846006840F00100086025706FF0C6
:102F6000304000F07DF806460348006820F001007C
:102F700001490860304670BD103C024070B50446FF
:102F80000D4600266FF0304000F06AF80646DEB9C4
:102F90000E48006820F440700C490860084600683C
:102FA00040F4807008600846006840F00100086046
:102FB00025806FF0304000F053F806460348006863
:102FC00020F0010001490860304670BD103C02400D
:102FD0000348006840F00040014908607047000065
:102FE000103C024030B5044600256FF0304000F040
:102FF00037F805466DBB18481849086044F0004092
:10300000091F086015481438006820F0F8001349BB
:10301000143908600846006840F00200086008465D
:10302000006840F4803008606FF0304000F018F81D
:1030300005460A48001F006820F000400749091FA4
:10304000086006481438006820F00200034914396B
:103050000860284630BD0000D6C7B8A9243C02400D
:1030600010B50346012400BF00F00AF804465B1EB9
:10307000012C01D1002BF7D103B90724204610BD44
:103080000020114A116801F480320AB1012019E0D0
:1030900001F480720AB1022014E001F080020AB14A
:1030A00003200FE001F040020AB104200AE001F021
:1030B00010020AB1052005E001F002020AB1062063
:1030C00000E00020704700000C3C0240054800680A
:1030D00000F0004028B1044802490C390860034858
:1030E00008607047103C024023016745AB89EFCD73
:1030F00070B504460D4600266FF03040FFF7B0FF74
:103100000646DEB90E48006820F440700C4908609D
:103110000846006840F4007008600846006840F007
:103120000100086025606FF03040FFF799FF064608
:103130000348006820F0010001490860304670BD76
:10314000103C024070B504460D46E1B2054800F05F
:10315000C6FE00BF0721034800F039FF0028F9D060
:10316000204670BD00100140F0B503461C6A5D6A40
:1031700000200DE00126864016403EB187000F2654
:10318000BE40B443860001FA06F63443461CB0B292
:103190000828EFD3082011E00126864016405EB1D2
:1031A000A0F10806B7000F26BE40B543A0F10806FF
:1031B000B60001FA06F63543461CB0B21028EBD330
:1031C0001C625D62F0BD816270478161704702469A
:1031D000002013690B400BB1012000E00020704774
:1031E000F0B504460D4616462168E268002019E055
:1031F000012787401F409FB14FEA400C032707FA81
:103200000CF7B943470005FA07F739434FEA400C7A
:10321000032707FA0CF7BA43470006FA07F73A43C1
:10322000471CB8B21028E3D32160E260F0BDF0B5CE
:103230000C461546012C03D146681E43466002E049
:1032400046689E434660826800210DE001268E405C
:103250001E403EB14F000326BE40B2434E0005FA69
:1032600006F632434E1CB1B21029EFD38260F0BD96
:1032700010B5102303A200210846FEF705F8FDF75C
:103280005FFF10BD32303236323930303538000011
:103290002DED028B00F0F6F800F080FDFEF730F91E
:1032A0006648806866490860644890ED030A65488E
:1032B00080ED000A614890ED040A634880ED000A41
:1032C0005E4890ED050A614880ED000A5B4890ED8C
:1032D000060A5F4880ED000AFEF7A4FAFEF712F82E
:1032E000FDF7CCFDFDF788FEFDF70EFBFDF784FB37
:1032F0004AF2B65057490880504800884880052057
:10330000888048F68800C880002008810220488113
:1033100000200873FDF79EFC8FE0FFF7A9FFFDF783
:10332000BDFB0546032D11D100204B4908704B49C8
:10333000C888FFF715FA012049490870002003E00A
:103340000021484A1154401CFF28F9DD4448007808
:1033500001280ED1FDF77EFC002003E00021424A47
:103360001154401CFF28F9DDFFF7CAF900203C4941
:1033700008703E480068012846D13D480068012891
:1033800042D100203A4908604AF2B65031490880DB
:103390002A48008848800220888040F20230C88095
:1033A0001220088102204881324800F0C7FAFDF758
:1033B000EBFF0446200E27490873210C2548417372
:1033C000210A8173C473FDF7D1F91E48D0ED000ABC
:1033D00020EE200AB0EE408A1E481030B0EE480AB7
:1033E000FDF74FFBFDF7DAF91748D0ED000A20EEA4
:1033F000200AF0EE408A17481430B0EE680AFDF754
:1034000040FBFDF727FC00BF1B480078012813D1C3
:1034100000201949087000BFBFF34F8F174800689C
:1034200000F4E06016490843001D14490860BFF32A
:103430004F8F00BF00BFFEE700BF6EE74C040020C7
:103440001800002024000020280000202C0000206C
:103450003000002068040020620000209806002050
:103460005C000020CC020020980500204C000020C9
:1034700054000020A8020020380000200CED00E0DD
:103480000000FA0510B54FF4A06000F085F810BDFB
:103490002DE9F04F03460E4617463D48006800F4FC
:1034A000E060B0F5A06F0FD006DCB0F5407F0DD026
:1034B000B0F5806F0BD108E0B0F5C06F03D0B0F568
:1034C000E06F04D100BF00BF00BF00BF04E04FF4B5
:1034D000A06000F061F800BF00BF00BF2C4800688A
:1034E000C0F30220044620463246BC460146C1F1E4
:1034F000070ABAF1040F02D94FF0040A01E0C1F142
:10350000070AD14601F1040ABAF1070F02D24FF0BF
:10351000000A01E0A1F1030AD0464FF0010A0AFABD
:1035200009FAAAF1010A0AEA020A0AFA08FA4FF0AD
:10353000010B0BFA08FBABF1010B0BEA0C0B4AEA8F
:103540000B0500BF1946284600290BDA02074FEA8F
:1035500012680F4A0C3201F00F0CACF1040C02F8A7
:103560000C8005E002074FEA126C0A4A02F801C01B
:1035700000BF00BF03F01F010120884059098900E6
:1035800001F1E021C1F8000100BFBDE8F08F0000AB
:103590000CED00E000E400E002490143024A116042
:1035A000704700000000FA050CED00E0034A0A40F5
:1035B0000243034B1A60BFF34F8F704780FFFF1F1A
:1035C00008ED00E00348006840F48070014908609D
:1035D00070470000007000400348006840F08070B1
:1035E0000149086070470000743802402DE9F04F2F
:1035F0008CB0064600200A903EA090E8004CC068BF
:10360000CDE905BECDF810A007900FF2EC0ADAE97B
:10361000000ACDE9020A0FF2E00ADAE9000ACDE970
:10362000000A38480068C0F381000B900B9820B165
:10363000012804D0022828D103E0334927E0334988
:1036400025E03048001F006800F03F072D48001FAC
:103650000068C0F3881C2B48001F0068C0F30140BD
:10366000401C4FEA40092748001F006800F480080A
:10367000B8F5800F01D1254B00E0234BB3FBF7F0E9
:1036800000FB0CF0B0FBF9F101E01F4900BF00BFE7
:103690001C480068C0F3031404A8055D21FA05F274
:1036A00018480068C0F3822402A8055D22FA05F0DC
:1036B000099014480068C0F342341DF8045022FAFF
:1036C00005F0089036B1012E06D0022E06D0032E4A
:1036D0000AD106E00A9108E00A9206E009980A90E9
:1036E00003E008980A9000E000BF00BF0A980CB001
:1036F000BDE8F08F0000000000000000010203049C
:1037000006070809083802400024F40040787D01CB
:1037100010B501460020074B03EB9112D2F80028A8
:1037200001F01F040123A3401A400AB1012000E068
:10373000002010BD00300240074A02EB9011D1F882
:10374000001800F01F0301229A401143024B03EBC3
:103750009012C2F80018704700300240F0B50646DB
:103760000024002700251C2E7DD007DCB6B3102EC8
:1037700010D0182E67D01A2E76D176E0B6F5E05F1D
:1037800019D0B6F5E85F4CD0A6F5405010380028A7
:10379000F2D134E004E01120FFF7BAFF0546641CC3
:1037A0001DB94FF6FF708442F5D11120FFF7B0FF2D
:1037B00000B101277AE005E041F60140FFF7A8FFDC
:1037C0000546641C1DB96FF070408442F4D141F687
:1037D0000140FFF79DFF00B1012767E0FFE704E02C
:1037E0000120FFF795FF0546641C15B9B4F5A06FDD
:1037F000F6D10120FFF78CFF00B1012756E005E06C
:1038000043F21100FFF784FF0546641C15B92948EF
:103810008442F5D143F21100FFF77AFF00B101278E
:1038200044E005E041F60150FFF772FF0546641CD5
:1038300015B920488442F5D141F60150FFF768FFE1
:1038400000B1012732E004E01920FFF761FF0546CF
:10385000641C15B917488442F6D11920FFF758FFA8
:1038600000B1012722E010E01FE004E01B20FFF779
:103870004FFF0546641C15B90E488442F6D11B2043
:10388000FFF746FF00B1012710E004E01D20FFF71D
:103890003FFF0546641C15B906488442F6D11D2039
:1038A000FFF736FF00B1012700E000BF00BF384638
:1038B000F0BD0000FFFF0F00074A02EB9011D1F8A6
:1038C000001800F01F0301229A401143024B03EB42
:1038D0009012C2F80018704700300240074A02EB0D
:1038E0009011D1F8001800F01F0301229A40914373
:1038F000024B03EB9012C2F80018704700300240F0
:10390000074A02EB9011D1F8001800F01F030122C2
:103910009A401143024B03EB9012C2F80018704713
:1039200000300240044A116821F4407141EA00026B
:10393000014B1A60704700007038024030B500211A
:10394000002200230024154D29682D1D2A68134DDF
:1039500010352B68114D08352C68150C0570C2F315
:103960000425457002F03F058570C2F34235C570ED
:10397000C1F305450571C1F30625457101F07F05C9
:103980008571C3F306450581C3F30E05458101F436
:103990008005C56004F04005056130BD0028004089
:1039A000F0B5044600250026002720784FF47F015B
:1039B00001EA0040E1784FF4604202EA41310843F5
:1039C00061784FF4F85202EA01210843A17801F02E
:1039D0003F0140EA010721794FF47C1202EA0141DC
:1039E000E068084361794FF4FE4202EA012108438E
:1039F000A17901F07F0140EA0106CA201849086058
:103A00005320086000F02EF805461DB320894FF4BE
:103A1000FE0101EA00406189C1F30E01084310492B
:103A2000143908600E4824380660001D0760001D28
:103A3000006820F040000A491C3908600846006808
:103A40002169084306491C39086000F02FF800F08E
:103A500057F80546FF20024908602846F0BD0000DF
:103A60002428004008B54FF4804200920021002035
:103A70000D4A126802F040029AB90B4A126842F0ED
:103A80008002094B1A6000BF074A126802F0400129
:103A9000009A521E00920AB10029F5D011B10120FE
:103AA00000E0012008BD00000C2800400348006829
:103AB00020F0800001490860704700000C28004099
:103AC00010B54FF4E850FFF737FE4FF4E850FFF71A
:103AD00045FE4FF40070FFF725FF40F23F10064906
:103AE000086063200549086041F60F40FFF7E4FED7
:103AF00000F006F810BD00000C00002008000020B7
:103B000008B54FF40042009200210020134A1268C9
:103B100002F0200202BBCA22104B1C331A6053224F
:103B20001A600E4A121D126822F020020B4B1B1D58
:103B30001A6000BF094A121D126802F02001009AA3
:103B4000521E00920AB10029F4D001B10120FF22D7
:103B5000024B1C331A6000E0012008BD0828004019
:103B600010B5164800681649088116480068488153
:103B7000162008700620C870042048703020887015
:103B800000200861C860087001204870887000201B
:103B90000871487188710846FFF702FF18B90AA03A
:103BA000FDF78EFF08E013A0FDF78AFF00F03AF85A
:103BB00043F2F0201A49086010BD00000800002000
:103BC000A80200200C0000200A0D2A2A205254438B
:103BD0002074696D6520636F6E66696775726174C4
:103BE000696F6E206661696C656421202A2A0A0D5E
:103BF000000000000A0D2A2A205254432074696DE7
:103C00006520636F6E66696775726174696F6E2097
:103C10007375636365737321202A2A0A0D000000FF
:103C20005028004010B50948FFF788FE0748837800
:103C30004278017806A0FDF743FF04488379427972
:103C400001790AA0FDF73CFF10BD0000A80200208A
:103C50005254433A20323025302E32782D25302EE2
:103C600032782D25302E3278000000002025302EAD
:103C700032783A25302E32783A25302E3278200D9F
:103C80000A00000008B5002000213F4A126842F4F3
:103C900080323D4B1A6000BF401C3B4A126802F460
:103CA000003119B94FF6FF729042F5D1364A1268C9
:103CB00002F4003232B900BF334A126802F4003213
:103CC000002AF9D0304A4032126842F080522E4B1E
:103CD00040331A602D4A126842F440422B4B1A605E
:103CE000294A08321268284B08331A601A461268AB
:103CF00042F400421A601A46126842F4A0521A6056
:103D0000234A1B1F1A601A1F126842F080721B1F81
:103D10001A6000BF1C4A126802F00072002AF9D033
:103D20001A4A126842F48032184B1A6000BF174AD0
:103D3000526802F48032002AF9D0144A126842F420
:103D40000032124B1A6000BF104A526802F400326F
:103D5000002AF9D00C4A083212680092009A22F028
:103D600003020092009A42F002020092064B0833CE
:103D7000009A1A6000BF044A0832126802F0080272
:103D8000002AF8D008BD0000003802400070004052
:103D90001978400A10B5FFF775FF10BD10B512482D
:103DA00000684FF47A71B0FBF1F4601EB0F1807FCF
:103DB00001D301200FE0601E4FF0E02148610F2188
:103DC0004FF0FF30FDF79EF800204FF0E0218861B2
:103DD00007200861002008B100BFFEE70021481E4F
:103DE000FDF790F810BD0000000000202DE9F0471D
:103DF00004460D460027B846B94600263349601AE6
:103E00008C4235D00CDC32482044E8B1B0F5806FEC
:103E10001FD0B0F5006F21D0B0F5406F32D122E055
:103E2000B0F5806F29D0B0F5184F03D0B0F51C4F16
:103E300028D104E00320FFF7D9FB074623E0032045
:103E4000FFF7D4FB07461EE00220FFF7CFFB074633
:103E500019E00220FFF7CAFB074614E00220FFF733
:103E6000C5FB07460FE00220FFF7C0FB07460AE04C
:103E70000220FFF7BBFB074605E00220FFF7B6FB79
:103E8000074600E000BF00BFE06800F4004070B1EA
:103E9000780000EB5500B0FBF5F64FF6F07006EA3F
:103EA0000008C6F3420948EA0900A0600CE007EBED
:103EB0005500B0FBF5F64FF6F07006EA000806F084
:103EC0000F0948EA0900A060BDE8F08700780040CB
:103ED00000BCFFBF01464868C0F308007047C1F34B
:103EE000080242607047000010B504463349601A6A
:103EF0008C424DD00CDC32482044E0B1B0F5806FEC
:103F000022D0B0F5006F31D0B0F5406F52D136E01D
:103F1000B0F5806F45D0B0F5184F03D0B0F51C4F09
:103F200048D11AE040F60410FFF7EAFC40F604100E
:103F3000FFF7D4FC3FE040F61100FFF7E1FC40F64C
:103F40001100FFF7CBFC36E040F61200FFF7D8FC7B
:103F500040F61200FFF7C2FC2DE040F60510FFF717
:103F6000CFFC40F60510FFF7B9FC24E040F6130043
:103F7000FFF7C6FC40F61300FFF7B0FC1BE040F66D
:103F80001400FFF7BDFC40F61400FFF7A7FC12E099
:103F900040F61E00FFF7B4FC40F61E00FFF79EFC43
:103FA00009E040F61F00FFF7ABFC40F61F00FFF7EB
:103FB00095FC00E000BF00BF10BD0000007800408D
:103FC00000BCFFBFC16841F40051C160704730B50B
:103FD0000246002002EB91131B6801F01F0501242B
:103FE000AC4023400BB1012000E0002030BD10B5F3
:103FF00000EB9112126801F01F040123A3401A4341
:1040000000EB91131A6010BD10B500EB91521268CD
:10401000C1F304440123A3409A4300EB91531A6077
:1040200010BDF0B50246002000230024C1F389151D
:10403000555901F01F070126BE4005EA060302EBB1
:1040400091552D68C1F304470126BE4005EA0604D8
:1040500014B10BB1012000E00020F0BD0A460021A0
:10406000C16821F004011143C16070470A46002174
:10407000C16821F008011143C160704700000000D1
:1040800000000000002F00000000070007000014DF
:104090007F147F1400242A7F2A12006264081323ED
:1040A00000364955225000000503000000001C2284
:1040B0004100000041221C000014083E08140008C2
:1040C000083E0808000000A0600000080808080872
:1040D000000060600000002010080402003E51490A
:1040E000453E0000427F40000042615149460021A8
:1040F00041454B31001814127F10002745454539C2
:10410000003C4A494930000171090503003649491C
:10411000493600064949291E0000363600000000D5
:104120005636000000081422410000141414141420
:1041300000004122140800020151090600324959C9
:10414000513E007C1211127C007F49494936003EE5
:1041500041414122007F4141221C007F49494941A0
:10416000007F09090901003E4149497A007F08089A
:10417000087F0000417F4100002040413F01007F57
:1041800008142241007F40404040007F020C027F23
:10419000007F0408107F003E4141413E007F090935
:1041A0000906003E4151215E007F0919294600465B
:1041B000494949310001017F0101003F4040403F32
:1041C000001F2040201F003F4038403F006314087C
:1041D0001463000708700807006151494543000057
:1041E0007F41410000552A552A55000041417F007A
:1041F000000402010204004040404040000001026F
:104200000400002054545478007F48444438003857
:104210004444442000384444487F003854545418DF
:1042200000087E0901020018A4A4A47C007F0804F1
:1042300004780000447D4000004080847D00007FC1
:10424000102844000000417F4000007C04180478DE
:10425000007C0804047800384444443800FC2424DA
:1042600024180018242418FC007C080404080048C2
:104270005454542000043F444020003C4040207CE3
:10428000001C2040201C003C4030403C00442810D2
:104290002844001CA0A0A07C004464544C44141486
:1042A00014141414000000000000000000000000BE
:1042B00000000000000000F80000000000000033D3
:1042C0003000000000100C06100C0600000000007A
:1042D0000000000040C07840C0784000043F040463
:1042E0003F040400007088FC08300000001820FF24
:1042F000211E0000F008F000E018000000211C035F
:104300001E211E0000F00888700000001E212324DA
:104310001927211010160E000000000000000000F8
:1043200000000000000000E0180402000000000788
:104330001820400000020418E0000000004020188F
:1043400007000000404080F0804040000202010F62
:1043500001020200000000F0000000000101011F46
:1043600001010100000000000000000080B07000AA
:10437000000000000000000000000000000101013A
:1043800001010101000000000000000000303000C9
:1043900000000000000000008060180400601806A3
:1043A0000100000000E010080810E000000F1020DD
:1043B00020100F00001010F8000000000020203F27
:1043C00020200000007008080888700000302824B1
:1043D0002221300000300888884830000018202052
:1043E00020110E000000C02010F800000007042477
:1043F000243F240000F808888808080000192120BC
:1044000020110E0000E0108888180000000F112015
:1044100020110E0000380808C83808000000003FCE
:10442000000000000070880808887000001C22212D
:1044300021221C0000E010080810E00000003122DA
:1044400022110F00000000C0C0000000000000307A
:1044500030000000000000800000000000008060CC
:10446000000000000000804020100800000102044D
:104470000810200040404040404040000404040434
:1044800004040400000810204080000000201008F0
:1044900004020100007048080808F0000000003025
:1044A00036010000C030C828E810E00007182724B3
:1044B00023140B000000C038E0000000203C230261
:1044C0000227382008F8888888700000203F2020C4
:1044D00020110E00C03008080808380007182020F6
:1044E0002010080008F808080810E000203F2020ED
:1044F00020100F0008F88888E8081000203F2020CE
:104500002320180008F88888E8081000203F2000C1
:1045100003000000C03008080838000007182020F9
:10452000221E020008F808000008F808203F2101B8
:1045300001213F20000808F8080800000020203F63
:104540002020000000000808F8080800C0808080D3
:104550007F00000008F888C028180800203F2001CC
:104560002638200008F8080000000000203F202026
:104570002020300008F8F800F8F80800203F003F3D
:10458000003F200008F830C00008F808203F200055
:1045900007183F00E01008080810E0000F10202066
:1045A00020100F0008F808080808F000203F21013B
:1045B00001010000E01008080810E0000F18242492
:1045C00038504F0008F8888888887000203F200005
:1045D000030C3020007088080808380000382021BB
:1045E00021221C00180808F8080818000000203FC5
:1045F0002000000008F808000008F808001F20202C
:1046000020201F000878880000C8380800000738FC
:104610000E010000F80800F80008F800033C07004D
:10462000073C0300081868808068180820302C03B5
:10463000032C30200838C800C83808000000203F8C
:104640002000000010080808C8380800203826217B
:1046500020201800000000FE020202000000007F7F
:1046600040404000000C30C000000000000000018D
:104670000638C00000020202FE0000000040404078
:104680007F0000000000040202020400000000009D
:10469000000000000000000000000000808080801A
:1046A0008080808000020204000000000000000002
:1046B000000000000000808080800000001924229B
:1046C00022223F2008F8008080000000003F1120D7
:1046D00020110E000000008080800000000E1120DC
:1046E00020201100000000808088F800000E1120BA
:1046F00020103F200000808080800000001F2222C8
:1047000022221300008080F0888888180020203F33
:10471000202000000000808080808000006B949446
:104720009493600008F8008080800000203F210002
:1047300000203F2000809898000000000020203FCB
:1047400020200000000000809898000000C08080B9
:10475000807F000008F8000080808000203F240255
:104760002D302000000808F8000000000020203F45
:10477000202000008080808080808000203F2000FA
:104780003F20003F8080008080800000203F21008B
:1047900000203F200000808080800000001F20203B
:1047A00020201F00808000808000000080FFA1206A
:1047B00020110E000000008080808000000E11207B
:1047C00020A0FF80808080008080800020203F210A
:1047D00020000100000080808080800000332424BD
:1047E00024241900008080E0808000000000001F69
:1047F000202000008080000000808000001F20201A
:1048000020103F20808080000080808000010E30DA
:104810000806010080800080008080800F300C033B
:104820000C300F0000808000808080000020312E3E
:104830000E312000808080000080808080818E701A
:104840001806010000808080808080000021302CCC
:104850002221300000000000807C020200000000E5
:10486000003F404000000000FF000000000000008A
:10487000FF0000000002027C800000000040403F7A
:104880000000000000060101020204040000000014
:104890000000000000000000000000000000000018
:1048A000000000003F400000000000000000300059
:1048B000400030004000000009000BC03D000BC06C
:1048C0003D00090018C024407FE0224031800000F4
:1048D000180024C01B000D803240018003801C4062
:1048E00027401C80074000401000600000000000CE
:1048F000000000000000000000001F802040402059
:104900000000402020401F80000000000900060039
:104910001F80060009000000040004003F8004001E
:104920000400000000100060000000000000000013
:104930000400040004000400040000000000004023
:104940000000000000000000002001C00600380048
:10495000400000001F802040204020401F800000B9
:10496000000010403FC000400000000018C021407F
:104970002240244018400000108020402440244061
:104980001B80000002000D0011003FC0014000002C
:104990003C80244024402440238000001F80244089
:1049A00024403440038000003000200027C038003D
:1049B000200000001B802440244024401B80000075
:1049C0001C0022C0224022401F8000000000000086
:1049D000084000000000000000000000046000002B
:1049E00000000000000004000A0011002080404088
:1049F000090009000900090009000000000040400A
:104A0000208011000A000400180020002340240028
:104A1000180000001F802040274029401F40000050
:104A2000004007C039000F0001C0004020403FC0D7
:104A3000244024401B8000001F8020402040204054
:104A40003080000020403FC0204020401F800000F8
:104A500020403FC024402E4030C0000020403FC0D6
:104A600024402E00300000000F0010802040224023
:104A70003380020020403FC0040004003FC02040BB
:104A8000204020403FC02040204000000060202007
:104A900020203FC02000200020403FC024400B00C9
:104AA00030C0204020403FC020400040004000C0B7
:104AB0003FC03C0003C03C003FC0000020403FC05E
:104AC0000C4023003FC020001F8020402040204099
:104AD0001F80000020403FC0244024001800000038
:104AE0001F802140214020E01FA0000020403FC047
:104AF0002440260019C0004018C024402440224011
:104B000031800000300020403FC0204030000000D5
:104B100020003F80004000403F80200020003E00F9
:104B200001C0070038002000380007C03C0007C063
:104B300038000000204039C0060039C02040000085
:104B40002000384007C0384020000000304021C01D
:104B50002640384020C00000000000007FE04020D8
:104B600040200000000070000C00038000400000A6
:104B70000000402040207FE00000000000002000F6
:104B80004000200000000000001000100010001085
:104B900000100010000000004000000000000000B5
:104BA000000002800540054003C0004020003FC0D7
:104BB00004400440038000000000038004400440DF
:104BC0000640000000000380044024403FC0004035
:104BD0000000038005400540034000000000044041
:104BE0001FC0244024402000000002E00550055072
:104BF0000650042020403FC00440040003C0004091
:104C00000000044027C00040000000000010001019
:104C1000041027E00000000020403FC001400700D2
:104C200004C00440204020403FC00040004000003D
:104C300007C0040007C0040003C00000044007C010
:104C40000440040003C0004000000380044004400E
:104C500003800000041007F00450044003800000AB
:104C6000000003800440045007F00010044007C017
:104C7000024004000400000000000640054005401A
:104C800004C00000000004001F8004400040000039
:104C9000040007800040044007C0004004000700F3
:104CA00004C0018006000400060001C0070001C026
:104CB00006000000044006C0010006C004400000D9
:104CC0000410071004E00180060004000000044006
:104CD00005C00640044000000000000004007BE026
:104CE00040200000000000000000FFF00000000075
:104CF000000040207BE00400000000004000800035
:104D000040002000200040000000000000000000E3
:104D100000000000000000000000000000001FCCA8
:104D2000000C0000000000000000080030006000DF
:104D30000800300060000000022003FC1E2002205A
:104D400003FC1E200220000000000E1811043FFF8B
:104D500010840C78000000000F0010840F3800C091
:104D6000077818840078000000780F8410C411249C
:104D70000E9800E40084000808006800700000003D
:104D8000000000000000000000000000000007E03C
:104D900018182004400200000000400220041818E7
:104DA00007E00000000000000240024001800FF018
:104DB00001800240024000000080008000800FF867
:104DC00000800080008000000001000D000E000047
:104DD0000000000000000000000000800080008053
:104DE00000800080008000800000000C000C0000AB
:104DF0000000000000000000000000060018006035
:104E00000180060018002000000007F008081004C8
:104E10001004080807F000000000080408041FFC44
:104E2000000400040000000000000E0C1014102408
:104E3000104411840E0C000000000C181004110422
:104E4000110412880C700000000000E0032004240C
:104E500008241FFC0024000000001F981084110487
:104E60001104108810700000000007F00888110479
:104E7000110418880070000000001C00100010FCD5
:104E800013001C001000000000000E3811441084B4
:104E9000108411440E38000000000700088C1044F4
:104EA0001044088807F00000000000000000030C18
:104EB000030C0000000000000000000000010106DB
:104EC00000000000000000000000008001400220FF
:104ED0000410080810040000022002200220022012
:104EE0000220022002200000000010040808041024
:104EF000022001400080000000000E001200100C93
:104F0000106C10800F00000003E00C1813E4142450
:104F100017C4082807D000000004003C03C41C404C
:104F2000074000E4001C000410041FFC11041104DD
:104F300011040E880070000003E00C181004100427
:104F4000100410081C10000010041FFC10041004B2
:104F50001004080807F0000010041FFC11041104DD
:104F600017C410040818000010041FFC11041100DD
:104F700017C010000800000003E00C181004100413
:104F800010441C780040000010041FFC10840080B6
:104F9000008010841FFC10040000100410041FFC8B
:104FA00010041004000000000003000110011001B3
:104FB0001FFE10001000000010041FFC11040380ED
:104FC0001464181C1004000010041FFC10040004DA
:104FD00000040004000C000010041FFC1F0000FC73
:104FE0001F001FFC1004000010041FFC0C04030031
:104FF00000E010181FFC100007F00808100410044F
:105000001004080807F0000010041FFC1084108032
:10501000108010800F00000007F0081810241024E2
:10502000101C080A07F2000010041FFC11041100F4
:1050300011C011300E0C000400000E1C110410846D
:10504000108410441C3800001800100010041FFCCD
:10505000100410001800000010001FF810040004D5
:10506000000410041FF8100010001E0011E0001CC6
:10507000007013801C0010001FC0103C00E01F00D7
:1050800000E0103C1FC000001004180C163401C0D2
:1050900001C01634180C100410001C00130400FC8E
:1050A00013041C00100000000804101C106410847D
:1050B00013041C04101800000000000000007FFE14
:1050C0004002400240020000000030000C0003805B
:1050D0000060001C0003000000004002400240028B
:1050E0007FFE0000000000000000000020004000E3
:1050F000400040002000000000010001000100010C
:1051000000010001000100010000400040002000FB
:10511000000000000000000000000098012401448D
:105120000144014400FC000410001FFC008801043D
:105130000104008800700000000000700088010475
:1051400001040104008800000000007000880104D0
:10515000010411081FFC0004000000F80144014490
:105160000144014400C800000000010401040FFCD8
:105170001104110411001800000000D601290129B2
:10518000012901C90106000010041FFC0084010070
:105190000100010400FC000400000104190419FCD2
:1051A00000040004000000000000000300010101F1
:1051B000190119FE0000000010041FFC002400402B
:1051C00001B4010C010400000000100410041FFCD5
:1051D0000004000400000000010401FC01040100BF
:1051E00001FC0104010000FC010401FC0084010039
:1051F0000100010400FC0004000000F801040104A7
:105200000104010400F80000010101FF0085010410
:105210000104008800700000000000700088010494
:105220000104010501FF00010104010401FC0084E7
:105230000104010001800000000000CC01240124D1
:10524000012401240198000000000100010007F87A
:105250000104010400000000010001F80004000442
:105260000004010801FC0004010001800170000C31
:10527000001001600180010001F0010C003001C04C
:105280000030010C01F0010000000104018C0074E9
:105290000170018C01040000010101810171000E07
:1052A000001801600180010000000184010C01343C
:1052B00001440184010C0000000000000000000017
:1052C00001003EFC4002400200000000000000001F
:1052D000FFFF0000000000000000400240023EFC12
:1052E000010000000000000000006000800080005D
:1052F00040004000200020000000000000000000EE
:10530000000000000000000000000000000000009D
:10531000000000000000000000000000000000008D
:1053200000000000000000000000000F80380FFEA9
:10533000380F80380000000000000000000000006E
:105340000000000000000100000600000C00003812
:1053500000003100000600000C00003800003000A2
:10536000000000000000000061800067F807F9807D
:105370000061800061800061800061800067F80743
:10538000F98000618000000000000000000001C002
:10539000E003E0F00630080418081FFFFE040E08C2
:1053A0000787F00381E000000000000001F0000624
:1053B0000C00040408060C7001F9C0000E00003B4C
:1053C000E000EC18070808040C180003E0000000D7
:1053D0000001E00007F003F818041C080417080790
:1053E000E1D003C0E00023B0003C0800200800002A
:1053F0001000000000000001000031000032000039
:105400001C00000000000000000000000000000080
:10541000000000000000000000000000000000008C
:1054200000000000000000007F0001FFC00780F0C6
:105430000C001810000420000200000000000020F2
:1054400000021000040C00180780F001FFC0007F6C
:10545000000000000000000000000000000000004C
:10546000000000004200006600006600003C0000F2
:10547000180003FFC0001800003C00006600006632
:1054800000004200000000000800000800000800C2
:1054900000080000080001FFC0000800000800002C
:1054A00008000008000008000000000000010000E3
:1054B0003100003200001C0000000000000000006D
:1054C00000000000000000000000000000000000DC
:1054D000080000080000080000080000080000089C
:1054E000000008000008000008000008000000009C
:1054F0000000000000000000380000380000380004
:10550000000000000000000000000000000000009B
:105510000000000000000000000600001C000070F9
:10552000000180000E0000380000C0000700001CD1
:105530000000300000000000000000007F8001FF3C
:10554000E003807006001804000804000806001834
:1055500003807001FFE0007F800000000000000079
:10556000000001000801000801000803FFF807FF20
:10557000F80000080000080000080000000000001B
:1055800000000001C03802C058040098040118044B
:105590000218040418061C1803F81801E0F80000AB
:1055A0000000000000000001C0E003C0F00400089B
:1055B00004080804080806180803F41801E7F000B6
:1055C00001E0000000000000000000000300000DEA
:1055D0000000110000610000810803010807FFF8C6
:1055E0000FFFF800010800010800000000000000A3
:1055F00000E007FCD0060808061008061008061090
:1056000008061838060FF00607C00000000000006A
:10561000000000003F8001FFE0038430020818040E
:105620001008041008041008071810030FF00007F2
:10563000C000000000000000000003C000070000E0
:105640000600000600F80607F806180006E0000746
:10565000000006000000000000000001E1E003F788
:10566000F0063410041808041808040C08040C0888
:1056700006161803F3F001C1E0000000000000006E
:10568000F80003FC30030638040208040208040290
:10569000080404100308F001FFC0007F00000000B0
:1056A00000000000000000000000000000000000FA
:1056B00070380070380070380000000000000000F2
:1056C00000000000000000000000000000000000DA
:1056D00000000000301A00301C0000000000000034
:1056E00000000000000000000000000000000008B2
:1056F00000001400002200004100008080010040F2
:105700000200200400100800080000000000000053
:1057100021000021000021000021000021000021C3
:1057200000002100002100002100002100000000F5
:105730000000000000000800080400100200200122
:10574000004000808000410000220000140000089A
:105750000000000000000003C00004C000040000BE
:10576000080038080F380808380810000C30000707
:10577000E00003C000000000000000003F8000FFC8
:10578000E0038070020F1006708804C0880483084C
:10579000047F8802C09003012000FE400000080042
:1057A00000180001F8003E0801C20007020007E2ED
:1057B0000000FE00001FC80001F8000038000008CB
:1057C00004000807FFF807FFF804080804080804A5
:1057D000080804080806180803F41801E7F0000197
:1057E000E0000000000000003F8001FFE003807047
:1057F0000200180400080400080400080400100651
:1058000000200780C000000004000807FFF807FF21
:10581000F80400080400080400080400180200103E
:1058200003807001FFE0007F800000000400080793
:10583000FFF807FFF804080804080804080804082B
:1058400008043E080400080600180100600000007B
:1058500004000807FFF807FFF8040808040800041C
:105860000800040800043E00060000060000018055
:1058700000000000000000003F8001FFE003807096
:105880000600180400080402080402080203F007D6
:1058900083F000020000020004000807FFF807FF81
:1058A000F8040808000800000800000800000800CC
:1058B00004080807FFF807FFF804000800000000CC
:1058C000000004000804000804000807FFF807FFB0
:1058D000F8040008040008040008000000000000AC
:1058E00000000000000600000700000104000104A1
:1058F000000104000307FFFE07FFFC040000040092
:105900000004000004000807FFF807FFF8040C0873
:10591000001800003E0004C7800503C80600F80414
:10592000003804001800000804000807FFF807FF0B
:10593000F804000800000800000800000800000843
:1059400000000800001800006000000004000807C4
:10595000FFF807800807FC00007FC00003F800077D
:10596000C000780007800807FFF807FFF804000868
:1059700004000807FFF807000803C00000E000006B
:105980003800001E000007000001C00400F007FFFF
:10599000F8040000000000007F8001FFE003807039
:1059A000060018040008040008060018030030016F
:1059B000FFE0007F8000000004000807FFF807FFF9
:1059C000F8040408040400040400040400040400AF
:1059D000060C0003F80001F00000000000000000C9
:1059E0007F8001FFE00380700600880400880400C7
:1059F000C806003C03003E01FFE6007F8400000073
:105A000004000807FFF807FFF8040808040800046A
:105A10000C00040F00040BC00610F003F03801E086
:105A20000800000800000001E0F803F03006301024
:105A3000041808041808040C08040C0802061802CC
:105A400007F00781E000000001800006000004006C
:105A50000004000004000807FFF807FFF80400082E
:105A6000040000040000060000018000040000079C
:105A7000FFE007FFF0040018000008000008000025
:105A80000800000800000804001007FFE004000000
:105A900004000006000007E00007FE00041FE0000D
:105AA00001F80000380001E0043E0007C0000600D5
:105AB0000004000004000007E00007FFC0041FF816
:105AC0000007C007F80007FF80043FF80007C00484
:105AD000F8000700000400000000000400080600B1
